{
  "_format": "hh-sol-artifact-1",
  "contractName": "TestNFT",
  "sourceName": "contracts/TestNFT.sol",
  "abi": [
    {
      "inputs": [],
      "stateMutability": "nonpayable",
      "type": "constructor"
    },
    {
      "inputs": [],
      "name": "ERC721EnumerableForbiddenBatchMint",
      "type": "error"
    },
    {
      "inputs": [
        {
          "internalType": "address",
          "name": "sender",
          "type": "address"
        },
        {
          "internalType": "uint256",
          "name": "tokenId",
          "type": "uint256"
        },
        {
          "internalType": "address",
          "name": "owner",
          "type": "address"
        }
      ],
      "name": "ERC721IncorrectOwner",
      "type": "error"
    },
    {
      "inputs": [
        {
          "internalType": "address",
          "name": "operator",
          "type": "address"
        },
        {
          "internalType": "uint256",
          "name": "tokenId",
          "type": "uint256"
        }
      ],
      "name": "ERC721InsufficientApproval",
      "type": "error"
    },
    {
      "inputs": [
        {
          "internalType": "address",
          "name": "approver",
          "type": "address"
        }
      ],
      "name": "ERC721InvalidApprover",
      "type": "error"
    },
    {
      "inputs": [
        {
          "internalType": "address",
          "name": "operator",
          "type": "address"
        }
      ],
      "name": "ERC721InvalidOperator",
      "type": "error"
    },
    {
      "inputs": [
        {
          "internalType": "address",
          "name": "owner",
          "type": "address"
        }
      ],
      "name": "ERC721InvalidOwner",
      "type": "error"
    },
    {
      "inputs": [
        {
          "internalType": "address",
          "name": "receiver",
          "type": "address"
        }
      ],
      "name": "ERC721InvalidReceiver",
      "type": "error"
    },
    {
      "inputs": [
        {
          "internalType": "address",
          "name": "sender",
          "type": "address"
        }
      ],
      "name": "ERC721InvalidSender",
      "type": "error"
    },
    {
      "inputs": [
        {
          "internalType": "uint256",
          "name": "tokenId",
          "type": "uint256"
        }
      ],
      "name": "ERC721NonexistentToken",
      "type": "error"
    },
    {
      "inputs": [
        {
          "internalType": "address",
          "name": "owner",
          "type": "address"
        },
        {
          "internalType": "uint256",
          "name": "index",
          "type": "uint256"
        }
      ],
      "name": "ERC721OutOfBoundsIndex",
      "type": "error"
    },
    {
      "anonymous": false,
      "inputs": [
        {
          "indexed": true,
          "internalType": "address",
          "name": "owner",
          "type": "address"
        },
        {
          "indexed": true,
          "internalType": "address",
          "name": "approved",
          "type": "address"
        },
        {
          "indexed": true,
          "internalType": "uint256",
          "name": "tokenId",
          "type": "uint256"
        }
      ],
      "name": "Approval",
      "type": "event"
    },
    {
      "anonymous": false,
      "inputs": [
        {
          "indexed": true,
          "internalType": "address",
          "name": "owner",
          "type": "address"
        },
        {
          "indexed": true,
          "internalType": "address",
          "name": "operator",
          "type": "address"
        },
        {
          "indexed": false,
          "internalType": "bool",
          "name": "approved",
          "type": "bool"
        }
      ],
      "name": "ApprovalForAll",
      "type": "event"
    },
    {
      "anonymous": false,
      "inputs": [
        {
          "indexed": false,
          "internalType": "uint256",
          "name": "_fromTokenId",
          "type": "uint256"
        },
        {
          "indexed": false,
          "internalType": "uint256",
          "name": "_toTokenId",
          "type": "uint256"
        }
      ],
      "name": "BatchMetadataUpdate",
      "type": "event"
    },
    {
      "anonymous": false,
      "inputs": [
        {
          "indexed": false,
          "internalType": "uint256",
          "name": "_tokenId",
          "type": "uint256"
        }
      ],
      "name": "MetadataUpdate",
      "type": "event"
    },
    {
      "anonymous": false,
      "inputs": [
        {
          "indexed": true,
          "internalType": "address",
          "name": "from",
          "type": "address"
        },
        {
          "indexed": true,
          "internalType": "address",
          "name": "to",
          "type": "address"
        },
        {
          "indexed": true,
          "internalType": "uint256",
          "name": "tokenId",
          "type": "uint256"
        }
      ],
      "name": "Transfer",
      "type": "event"
    },
    {
      "inputs": [
        {
          "internalType": "address",
          "name": "to",
          "type": "address"
        },
        {
          "internalType": "uint256",
          "name": "tokenId",
          "type": "uint256"
        }
      ],
      "name": "approve",
      "outputs": [],
      "stateMutability": "nonpayable",
      "type": "function"
    },
    {
      "inputs": [
        {
          "internalType": "address",
          "name": "owner",
          "type": "address"
        }
      ],
      "name": "balanceOf",
      "outputs": [
        {
          "internalType": "uint256",
          "name": "",
          "type": "uint256"
        }
      ],
      "stateMutability": "view",
      "type": "function"
    },
    {
      "inputs": [
        {
          "internalType": "uint256",
          "name": "tokenId",
          "type": "uint256"
        }
      ],
      "name": "getApproved",
      "outputs": [
        {
          "internalType": "address",
          "name": "",
          "type": "address"
        }
      ],
      "stateMutability": "view",
      "type": "function"
    },
    {
      "inputs": [
        {
          "internalType": "address",
          "name": "owner",
          "type": "address"
        },
        {
          "internalType": "address",
          "name": "operator",
          "type": "address"
        }
      ],
      "name": "isApprovedForAll",
      "outputs": [
        {
          "internalType": "bool",
          "name": "",
          "type": "bool"
        }
      ],
      "stateMutability": "view",
      "type": "function"
    },
    {
      "inputs": [],
      "name": "maxSupply",
      "outputs": [
        {
          "internalType": "uint256",
          "name": "",
          "type": "uint256"
        }
      ],
      "stateMutability": "view",
      "type": "function"
    },
    {
      "inputs": [],
      "name": "name",
      "outputs": [
        {
          "internalType": "string",
          "name": "",
          "type": "string"
        }
      ],
      "stateMutability": "view",
      "type": "function"
    },
    {
      "inputs": [
        {
          "internalType": "uint256",
          "name": "tokenId",
          "type": "uint256"
        }
      ],
      "name": "ownerOf",
      "outputs": [
        {
          "internalType": "address",
          "name": "",
          "type": "address"
        }
      ],
      "stateMutability": "view",
      "type": "function"
    },
    {
      "inputs": [],
      "name": "safeMint",
      "outputs": [],
      "stateMutability": "nonpayable",
      "type": "function"
    },
    {
      "inputs": [
        {
          "internalType": "address",
          "name": "from",
          "type": "address"
        },
        {
          "internalType": "address",
          "name": "to",
          "type": "address"
        },
        {
          "internalType": "uint256",
          "name": "tokenId",
          "type": "uint256"
        }
      ],
      "name": "safeTransferFrom",
      "outputs": [],
      "stateMutability": "nonpayable",
      "type": "function"
    },
    {
      "inputs": [
        {
          "internalType": "address",
          "name": "from",
          "type": "address"
        },
        {
          "internalType": "address",
          "name": "to",
          "type": "address"
        },
        {
          "internalType": "uint256",
          "name": "tokenId",
          "type": "uint256"
        },
        {
          "internalType": "bytes",
          "name": "data",
          "type": "bytes"
        }
      ],
      "name": "safeTransferFrom",
      "outputs": [],
      "stateMutability": "nonpayable",
      "type": "function"
    },
    {
      "inputs": [
        {
          "internalType": "address",
          "name": "operator",
          "type": "address"
        },
        {
          "internalType": "bool",
          "name": "approved",
          "type": "bool"
        }
      ],
      "name": "setApprovalForAll",
      "outputs": [],
      "stateMutability": "nonpayable",
      "type": "function"
    },
    {
      "inputs": [
        {
          "internalType": "bytes4",
          "name": "interfaceId",
          "type": "bytes4"
        }
      ],
      "name": "supportsInterface",
      "outputs": [
        {
          "internalType": "bool",
          "name": "",
          "type": "bool"
        }
      ],
      "stateMutability": "view",
      "type": "function"
    },
    {
      "inputs": [],
      "name": "symbol",
      "outputs": [
        {
          "internalType": "string",
          "name": "",
          "type": "string"
        }
      ],
      "stateMutability": "view",
      "type": "function"
    },
    {
      "inputs": [
        {
          "internalType": "uint256",
          "name": "index",
          "type": "uint256"
        }
      ],
      "name": "tokenByIndex",
      "outputs": [
        {
          "internalType": "uint256",
          "name": "",
          "type": "uint256"
        }
      ],
      "stateMutability": "view",
      "type": "function"
    },
    {
      "inputs": [
        {
          "internalType": "address",
          "name": "owner",
          "type": "address"
        },
        {
          "internalType": "uint256",
          "name": "index",
          "type": "uint256"
        }
      ],
      "name": "tokenOfOwnerByIndex",
      "outputs": [
        {
          "internalType": "uint256",
          "name": "",
          "type": "uint256"
        }
      ],
      "stateMutability": "view",
      "type": "function"
    },
    {
      "inputs": [
        {
          "internalType": "uint256",
          "name": "tokenId",
          "type": "uint256"
        }
      ],
      "name": "tokenURI",
      "outputs": [
        {
          "internalType": "string",
          "name": "",
          "type": "string"
        }
      ],
      "stateMutability": "view",
      "type": "function"
    },
    {
      "inputs": [],
      "name": "totalSupply",
      "outputs": [
        {
          "internalType": "uint256",
          "name": "",
          "type": "uint256"
        }
      ],
      "stateMutability": "view",
      "type": "function"
    },
    {
      "inputs": [
        {
          "internalType": "address",
          "name": "from",
          "type": "address"
        },
        {
          "internalType": "address",
          "name": "to",
          "type": "address"
        },
        {
          "internalType": "uint256",
          "name": "tokenId",
          "type": "uint256"
        }
      ],
      "name": "transferFrom",
      "outputs": [],
      "stateMutability": "nonpayable",
      "type": "function"
    }
  ],
  "bytecode": "0x60806040526004600c5560405180608001604052806040518060600160405280603581526020016200314b6035913981526020016040518060600160405280603581526020016200318060359139815260200160405180606001604052806036815260200162003115603691398152602001604051806060016040528060368152602001620031b560369139815250600d906004620000a092919062000147565b50348015620000ae57600080fd5b506040518060400160405280600781526020017f546573744e4654000000000000000000000000000000000000000000000000008152506040518060400160405280600481526020017f544e46540000000000000000000000000000000000000000000000000000000081525081600090816200012c9190620004a1565b5080600190816200013e9190620004a1565b50505062000588565b826004810192821562000187579160200282015b8281111562000186578251829081620001759190620004a1565b50916020019190600101906200015b565b5b5090506200019691906200019a565b5090565b5b80821115620001be5760008181620001b49190620001c2565b506001016200019b565b5090565b508054620001d09062000290565b6000825580601f10620001e4575062000205565b601f01602090049060005260206000209081019062000204919062000208565b5b50565b5b808211156200022357600081600090555060010162000209565b5090565b600081519050919050565b7f4e487b7100000000000000000000000000000000000000000000000000000000600052604160045260246000fd5b7f4e487b7100000000000000000000000000000000000000000000000000000000600052602260045260246000fd5b60006002820490506001821680620002a957607f821691505b602082108103620002bf57620002be62000261565b5b50919050565b60008190508160005260206000209050919050565b60006020601f8301049050919050565b600082821b905092915050565b600060088302620003297fffffffffffffffffffffffffffffffffffffffffffffffffffffffffffffffff82620002ea565b620003358683620002ea565b95508019841693508086168417925050509392505050565b6000819050919050565b6000819050919050565b6000620003826200037c62000376846200034d565b62000357565b6200034d565b9050919050565b6000819050919050565b6200039e8362000361565b620003b6620003ad8262000389565b848454620002f7565b825550505050565b600090565b620003cd620003be565b620003da81848462000393565b505050565b5b818110156200040257620003f6600082620003c3565b600181019050620003e0565b5050565b601f82111562000451576200041b81620002c5565b6200042684620002da565b8101602085101562000436578190505b6200044e6200044585620002da565b830182620003df565b50505b505050565b600082821c905092915050565b6000620004766000198460080262000456565b1980831691505092915050565b600062000491838362000463565b9150826002028217905092915050565b620004ac8262000227565b67ffffffffffffffff811115620004c857620004c762000232565b5b620004d4825462000290565b620004e182828562000406565b600060209050601f83116001811462000519576000841562000504578287015190505b62000510858262000483565b86555062000580565b601f1984166200052986620002c5565b60005b8281101562000553578489015182556001820191506020850194506020810190506200052c565b868310156200057357848901516200056f601f89168262000463565b8355505b6001600288020188555050505b505050505050565b612b7d80620005986000396000f3fe608060405234801561001057600080fd5b50600436106101165760003560e01c80636352211e116100a2578063a22cb46511610071578063a22cb465146102f3578063b88d4fde1461030f578063c87b56dd1461032b578063d5abeb011461035b578063e985e9c51461037957610116565b80636352211e1461026b5780636871ee401461029b57806370a08231146102a557806395d89b41146102d557610116565b806318160ddd116100e957806318160ddd146101b557806323b872dd146101d35780632f745c59146101ef57806342842e0e1461021f5780634f6ccce71461023b57610116565b806301ffc9a71461011b57806306fdde031461014b578063081812fc14610169578063095ea7b314610199575b600080fd5b61013560048036038101906101309190611fd4565b6103a9565b604051610142919061201c565b60405180910390f35b6101536103bb565b60405161016091906120c7565b60405180910390f35b610183600480360381019061017e919061211f565b61044d565b604051610190919061218d565b60405180910390f35b6101b360048036038101906101ae91906121d4565b610469565b005b6101bd61047f565b6040516101ca9190612223565b60405180910390f35b6101ed60048036038101906101e8919061223e565b61048c565b005b610209600480360381019061020491906121d4565b61058e565b6040516102169190612223565b60405180910390f35b6102396004803603810190610234919061223e565b610637565b005b6102556004803603810190610250919061211f565b610657565b6040516102629190612223565b60405180910390f35b6102856004803603810190610280919061211f565b6106cd565b604051610292919061218d565b60405180910390f35b6102a36106df565b005b6102bf60048036038101906102ba9190612291565b6107f4565b6040516102cc9190612223565b60405180910390f35b6102dd6108ae565b6040516102ea91906120c7565b60405180910390f35b61030d600480360381019061030891906122ea565b610940565b005b6103296004803603810190610324919061245f565b610956565b005b6103456004803603810190610340919061211f565b610973565b60405161035291906120c7565b60405180910390f35b610363610985565b6040516103709190612223565b60405180910390f35b610393600480360381019061038e91906124e2565b61098b565b6040516103a0919061201c565b60405180910390f35b60006103b482610a1f565b9050919050565b6060600080546103ca90612551565b80601f01602080910402602001604051908101604052809291908181526020018280546103f690612551565b80156104435780601f1061041857610100808354040283529160200191610443565b820191906000526020600020905b81548152906001019060200180831161042657829003601f168201915b5050505050905090565b600061045882610a80565b5061046282610b08565b9050919050565b61047b8282610476610b45565b610b4d565b5050565b6000600880549050905090565b600073ffffffffffffffffffffffffffffffffffffffff168273ffffffffffffffffffffffffffffffffffffffff16036104fe5760006040517f64a0ae920000000000000000000000000000000000000000000000000000000081526004016104f5919061218d565b60405180910390fd5b6000610512838361050d610b45565b610b5f565b90508373ffffffffffffffffffffffffffffffffffffffff168173ffffffffffffffffffffffffffffffffffffffff1614610588578382826040517f64283d7b00000000000000000000000000000000000000000000000000000000815260040161057f93929190612582565b60405180910390fd5b50505050565b6000610599836107f4565b82106105de5782826040517fa57d13dc0000000000000000000000000000000000000000000000000000000081526004016105d59291906125b9565b60405180910390fd5b600660008473ffffffffffffffffffffffffffffffffffffffff1673ffffffffffffffffffffffffffffffffffffffff168152602001908152602001600020600083815260200190815260200160002054905092915050565b61065283838360405180602001604052806000815250610956565b505050565b600061066161047f565b82106106a7576000826040517fa57d13dc00000000000000000000000000000000000000000000000000000000815260040161069e9291906125b9565b60405180910390fd5b600882815481106106bb576106ba6125e2565b5b90600052602060002001549050919050565b60006106d882610a80565b9050919050565b600c54600b5410610725576040517f08c379a000000000000000000000000000000000000000000000000000000000815260040161071c9061265d565b60405180910390fd5b6000600b600081548092919061073a906126ac565b91905055905061074a3382610b75565b6107f181600d8360048110610762576107616125e2565b5b01805461076e90612551565b80601f016020809104026020016040519081016040528092919081815260200182805461079a90612551565b80156107e75780601f106107bc576101008083540402835291602001916107e7565b820191906000526020600020905b8154815290600101906020018083116107ca57829003601f168201915b5050505050610b93565b50565b60008073ffffffffffffffffffffffffffffffffffffffff168273ffffffffffffffffffffffffffffffffffffffff16036108675760006040517f89c62b6400000000000000000000000000000000000000000000000000000000815260040161085e919061218d565b60405180910390fd5b600360008373ffffffffffffffffffffffffffffffffffffffff1673ffffffffffffffffffffffffffffffffffffffff168152602001908152602001600020549050919050565b6060600180546108bd90612551565b80601f01602080910402602001604051908101604052809291908181526020018280546108e990612551565b80156109365780601f1061090b57610100808354040283529160200191610936565b820191906000526020600020905b81548152906001019060200180831161091957829003601f168201915b5050505050905090565b61095261094b610b45565b8383610bef565b5050565b61096184848461048c565b61096d84848484610d5e565b50505050565b606061097e82610f15565b9050919050565b600c5481565b6000600560008473ffffffffffffffffffffffffffffffffffffffff1673ffffffffffffffffffffffffffffffffffffffff16815260200190815260200160002060008373ffffffffffffffffffffffffffffffffffffffff1673ffffffffffffffffffffffffffffffffffffffff16815260200190815260200160002060009054906101000a900460ff16905092915050565b6000634906490660e01b7bffffffffffffffffffffffffffffffffffffffffffffffffffffffff1916827bffffffffffffffffffffffffffffffffffffffffffffffffffffffff19161480610a795750610a7882611028565b5b9050919050565b600080610a8c836110a2565b9050600073ffffffffffffffffffffffffffffffffffffffff168173ffffffffffffffffffffffffffffffffffffffff1603610aff57826040517f7e273289000000000000000000000000000000000000000000000000000000008152600401610af69190612223565b60405180910390fd5b80915050919050565b60006004600083815260200190815260200160002060009054906101000a900473ffffffffffffffffffffffffffffffffffffffff169050919050565b600033905090565b610b5a83838360016110df565b505050565b6000610b6c8484846112a4565b90509392505050565b610b8f8282604051806020016040528060008152506113c1565b5050565b80600a60008481526020019081526020016000209081610bb391906128a0565b507ff8e1a15aba9398e019f0b49df1a4fde98ee17ae345cb5f6b5e2c27f5033e8ce782604051610be39190612223565b60405180910390a15050565b600073ffffffffffffffffffffffffffffffffffffffff168273ffffffffffffffffffffffffffffffffffffffff1603610c6057816040517f5b08ba18000000000000000000000000000000000000000000000000000000008152600401610c57919061218d565b60405180910390fd5b80600560008573ffffffffffffffffffffffffffffffffffffffff1673ffffffffffffffffffffffffffffffffffffffff16815260200190815260200160002060008473ffffffffffffffffffffffffffffffffffffffff1673ffffffffffffffffffffffffffffffffffffffff16815260200190815260200160002060006101000a81548160ff0219169083151502179055508173ffffffffffffffffffffffffffffffffffffffff168373ffffffffffffffffffffffffffffffffffffffff167f17307eab39ab6107e8899845ad3d59bd9653f200f220920489ca2b5937696c3183604051610d51919061201c565b60405180910390a3505050565b60008373ffffffffffffffffffffffffffffffffffffffff163b1115610f0f578273ffffffffffffffffffffffffffffffffffffffff1663150b7a02610da2610b45565b8685856040518563ffffffff1660e01b8152600401610dc494939291906129c7565b6020604051808303816000875af1925050508015610e0057506040513d601f19601f82011682018060405250810190610dfd9190612a28565b60015b610e84573d8060008114610e30576040519150601f19603f3d011682016040523d82523d6000602084013e610e35565b606091505b506000815103610e7c57836040517f64a0ae92000000000000000000000000000000000000000000000000000000008152600401610e73919061218d565b60405180910390fd5b805181602001fd5b63150b7a0260e01b7bffffffffffffffffffffffffffffffffffffffffffffffffffffffff1916817bffffffffffffffffffffffffffffffffffffffffffffffffffffffff191614610f0d57836040517f64a0ae92000000000000000000000000000000000000000000000000000000008152600401610f04919061218d565b60405180910390fd5b505b50505050565b6060610f2082610a80565b506000600a60008481526020019081526020016000208054610f4190612551565b80601f0160208091040260200160405190810160405280929190818152602001828054610f6d90612551565b8015610fba5780601f10610f8f57610100808354040283529160200191610fba565b820191906000526020600020905b815481529060010190602001808311610f9d57829003601f168201915b505050505090506000610fcb6113dd565b90506000815103610fe0578192505050611023565b600082511115611015578082604051602001610ffd929190612a91565b60405160208183030381529060405292505050611023565b61101e846113f4565b925050505b919050565b60007f780e9d63000000000000000000000000000000000000000000000000000000007bffffffffffffffffffffffffffffffffffffffffffffffffffffffff1916827bffffffffffffffffffffffffffffffffffffffffffffffffffffffff1916148061109b575061109a8261145d565b5b9050919050565b60006002600083815260200190815260200160002060009054906101000a900473ffffffffffffffffffffffffffffffffffffffff169050919050565b80806111185750600073ffffffffffffffffffffffffffffffffffffffff168273ffffffffffffffffffffffffffffffffffffffff1614155b1561124c57600061112884610a80565b9050600073ffffffffffffffffffffffffffffffffffffffff168373ffffffffffffffffffffffffffffffffffffffff161415801561119357508273ffffffffffffffffffffffffffffffffffffffff168173ffffffffffffffffffffffffffffffffffffffff1614155b80156111a657506111a4818461098b565b155b156111e857826040517fa9fbf51f0000000000000000000000000000000000000000000000000000000081526004016111df919061218d565b60405180910390fd5b811561124a57838573ffffffffffffffffffffffffffffffffffffffff168273ffffffffffffffffffffffffffffffffffffffff167f8c5be1e5ebec7d5bd14f71427d1e84f3dd0314c0f7b2291e5b200ac8c7c3b92560405160405180910390a45b505b836004600085815260200190815260200160002060006101000a81548173ffffffffffffffffffffffffffffffffffffffff021916908373ffffffffffffffffffffffffffffffffffffffff16021790555050505050565b6000806112b285858561153f565b9050600073ffffffffffffffffffffffffffffffffffffffff168173ffffffffffffffffffffffffffffffffffffffff16036112f6576112f184611759565b611335565b8473ffffffffffffffffffffffffffffffffffffffff168173ffffffffffffffffffffffffffffffffffffffff16146113345761133381856117a2565b5b5b600073ffffffffffffffffffffffffffffffffffffffff168573ffffffffffffffffffffffffffffffffffffffff16036113775761137284611903565b6113b6565b8473ffffffffffffffffffffffffffffffffffffffff168173ffffffffffffffffffffffffffffffffffffffff16146113b5576113b485856119d4565b5b5b809150509392505050565b6113cb8383611a5f565b6113d86000848484610d5e565b505050565b606060405180602001604052806000815250905090565b60606113ff82610a80565b50600061140a6113dd565b9050600081511161142a5760405180602001604052806000815250611455565b8061143484611b58565b604051602001611445929190612a91565b6040516020818303038152906040525b915050919050565b60007f80ac58cd000000000000000000000000000000000000000000000000000000007bffffffffffffffffffffffffffffffffffffffffffffffffffffffff1916827bffffffffffffffffffffffffffffffffffffffffffffffffffffffff1916148061152857507f5b5e139f000000000000000000000000000000000000000000000000000000007bffffffffffffffffffffffffffffffffffffffffffffffffffffffff1916827bffffffffffffffffffffffffffffffffffffffffffffffffffffffff1916145b80611538575061153782611c26565b5b9050919050565b60008061154b846110a2565b9050600073ffffffffffffffffffffffffffffffffffffffff168373ffffffffffffffffffffffffffffffffffffffff161461158d5761158c818486611c90565b5b600073ffffffffffffffffffffffffffffffffffffffff168173ffffffffffffffffffffffffffffffffffffffff161461161e576115cf6000856000806110df565b6001600360008373ffffffffffffffffffffffffffffffffffffffff1673ffffffffffffffffffffffffffffffffffffffff168152602001908152602001600020600082825403925050819055505b600073ffffffffffffffffffffffffffffffffffffffff168573ffffffffffffffffffffffffffffffffffffffff16146116a1576001600360008773ffffffffffffffffffffffffffffffffffffffff1673ffffffffffffffffffffffffffffffffffffffff168152602001908152602001600020600082825401925050819055505b846002600086815260200190815260200160002060006101000a81548173ffffffffffffffffffffffffffffffffffffffff021916908373ffffffffffffffffffffffffffffffffffffffff160217905550838573ffffffffffffffffffffffffffffffffffffffff168273ffffffffffffffffffffffffffffffffffffffff167fddf252ad1be2c89b69c2b068fc378daa952ba7f163c4a11628f55a4df523b3ef60405160405180910390a4809150509392505050565b6008805490506009600083815260200190815260200160002081905550600881908060018154018082558091505060019003906000526020600020016000909190919091505550565b60006117ad836107f4565b9050600060076000848152602001908152602001600020549050818114611892576000600660008673ffffffffffffffffffffffffffffffffffffffff1673ffffffffffffffffffffffffffffffffffffffff168152602001908152602001600020600084815260200190815260200160002054905080600660008773ffffffffffffffffffffffffffffffffffffffff1673ffffffffffffffffffffffffffffffffffffffff168152602001908152602001600020600084815260200190815260200160002081905550816007600083815260200190815260200160002081905550505b6007600084815260200190815260200160002060009055600660008573ffffffffffffffffffffffffffffffffffffffff1673ffffffffffffffffffffffffffffffffffffffff16815260200190815260200160002060008381526020019081526020016000206000905550505050565b600060016008805490506119179190612ab5565b9050600060096000848152602001908152602001600020549050600060088381548110611947576119466125e2565b5b906000526020600020015490508060088381548110611969576119686125e2565b5b9060005260206000200181905550816009600083815260200190815260200160002081905550600960008581526020019081526020016000206000905560088054806119b8576119b7612ae9565b5b6001900381819060005260206000200160009055905550505050565b600060016119e1846107f4565b6119eb9190612ab5565b905081600660008573ffffffffffffffffffffffffffffffffffffffff1673ffffffffffffffffffffffffffffffffffffffff168152602001908152602001600020600083815260200190815260200160002081905550806007600084815260200190815260200160002081905550505050565b600073ffffffffffffffffffffffffffffffffffffffff168273ffffffffffffffffffffffffffffffffffffffff1603611ad15760006040517f64a0ae92000000000000000000000000000000000000000000000000000000008152600401611ac8919061218d565b60405180910390fd5b6000611adf83836000610b5f565b9050600073ffffffffffffffffffffffffffffffffffffffff168173ffffffffffffffffffffffffffffffffffffffff1614611b535760006040517f73c6ac6e000000000000000000000000000000000000000000000000000000008152600401611b4a919061218d565b60405180910390fd5b505050565b606060006001611b6784611d54565b01905060008167ffffffffffffffff811115611b8657611b85612334565b5b6040519080825280601f01601f191660200182016040528015611bb85781602001600182028036833780820191505090505b509050600082602001820190505b600115611c1b578080600190039150507f3031323334353637383961626364656600000000000000000000000000000000600a86061a8153600a8581611c0f57611c0e612b18565b5b04945060008503611bc6575b819350505050919050565b60007f01ffc9a7000000000000000000000000000000000000000000000000000000007bffffffffffffffffffffffffffffffffffffffffffffffffffffffff1916827bffffffffffffffffffffffffffffffffffffffffffffffffffffffff1916149050919050565b611c9b838383611ea7565b611d4f57600073ffffffffffffffffffffffffffffffffffffffff168373ffffffffffffffffffffffffffffffffffffffff1603611d1057806040517f7e273289000000000000000000000000000000000000000000000000000000008152600401611d079190612223565b60405180910390fd5b81816040517f177e802f000000000000000000000000000000000000000000000000000000008152600401611d469291906125b9565b60405180910390fd5b505050565b600080600090507a184f03e93ff9f4daa797ed6e38ed64bf6a1f0100000000000000008310611db2577a184f03e93ff9f4daa797ed6e38ed64bf6a1f0100000000000000008381611da857611da7612b18565b5b0492506040810190505b6d04ee2d6d415b85acef81000000008310611def576d04ee2d6d415b85acef81000000008381611de557611de4612b18565b5b0492506020810190505b662386f26fc100008310611e1e57662386f26fc100008381611e1457611e13612b18565b5b0492506010810190505b6305f5e1008310611e47576305f5e1008381611e3d57611e3c612b18565b5b0492506008810190505b6127108310611e6c576127108381611e6257611e61612b18565b5b0492506004810190505b60648310611e8f5760648381611e8557611e84612b18565b5b0492506002810190505b600a8310611e9e576001810190505b80915050919050565b60008073ffffffffffffffffffffffffffffffffffffffff168373ffffffffffffffffffffffffffffffffffffffff1614158015611f5f57508273ffffffffffffffffffffffffffffffffffffffff168473ffffffffffffffffffffffffffffffffffffffff161480611f205750611f1f848461098b565b5b80611f5e57508273ffffffffffffffffffffffffffffffffffffffff16611f4683610b08565b73ffffffffffffffffffffffffffffffffffffffff16145b5b90509392505050565b6000604051905090565b600080fd5b600080fd5b60007fffffffff0000000000000000000000000000000000000000000000000000000082169050919050565b611fb181611f7c565b8114611fbc57600080fd5b50565b600081359050611fce81611fa8565b92915050565b600060208284031215611fea57611fe9611f72565b5b6000611ff884828501611fbf565b91505092915050565b60008115159050919050565b61201681612001565b82525050565b6000602082019050612031600083018461200d565b92915050565b600081519050919050565b600082825260208201905092915050565b60005b83811015612071578082015181840152602081019050612056565b60008484015250505050565b6000601f19601f8301169050919050565b600061209982612037565b6120a38185612042565b93506120b3818560208601612053565b6120bc8161207d565b840191505092915050565b600060208201905081810360008301526120e1818461208e565b905092915050565b6000819050919050565b6120fc816120e9565b811461210757600080fd5b50565b600081359050612119816120f3565b92915050565b60006020828403121561213557612134611f72565b5b60006121438482850161210a565b91505092915050565b600073ffffffffffffffffffffffffffffffffffffffff82169050919050565b60006121778261214c565b9050919050565b6121878161216c565b82525050565b60006020820190506121a2600083018461217e565b92915050565b6121b18161216c565b81146121bc57600080fd5b50565b6000813590506121ce816121a8565b92915050565b600080604083850312156121eb576121ea611f72565b5b60006121f9858286016121bf565b925050602061220a8582860161210a565b9150509250929050565b61221d816120e9565b82525050565b60006020820190506122386000830184612214565b92915050565b60008060006060848603121561225757612256611f72565b5b6000612265868287016121bf565b9350506020612276868287016121bf565b92505060406122878682870161210a565b9150509250925092565b6000602082840312156122a7576122a6611f72565b5b60006122b5848285016121bf565b91505092915050565b6122c781612001565b81146122d257600080fd5b50565b6000813590506122e4816122be565b92915050565b6000806040838503121561230157612300611f72565b5b600061230f858286016121bf565b9250506020612320858286016122d5565b9150509250929050565b600080fd5b600080fd5b7f4e487b7100000000000000000000000000000000000000000000000000000000600052604160045260246000fd5b61236c8261207d565b810181811067ffffffffffffffff8211171561238b5761238a612334565b5b80604052505050565b600061239e611f68565b90506123aa8282612363565b919050565b600067ffffffffffffffff8211156123ca576123c9612334565b5b6123d38261207d565b9050602081019050919050565b82818337600083830152505050565b60006124026123fd846123af565b612394565b90508281526020810184848401111561241e5761241d61232f565b5b6124298482856123e0565b509392505050565b600082601f8301126124465761244561232a565b5b81356124568482602086016123ef565b91505092915050565b6000806000806080858703121561247957612478611f72565b5b6000612487878288016121bf565b9450506020612498878288016121bf565b93505060406124a98782880161210a565b925050606085013567ffffffffffffffff8111156124ca576124c9611f77565b5b6124d687828801612431565b91505092959194509250565b600080604083850312156124f9576124f8611f72565b5b6000612507858286016121bf565b9250506020612518858286016121bf565b9150509250929050565b7f4e487b7100000000000000000000000000000000000000000000000000000000600052602260045260246000fd5b6000600282049050600182168061256957607f821691505b60208210810361257c5761257b612522565b5b50919050565b6000606082019050612597600083018661217e565b6125a46020830185612214565b6125b1604083018461217e565b949350505050565b60006040820190506125ce600083018561217e565b6125db6020830184612214565b9392505050565b7f4e487b7100000000000000000000000000000000000000000000000000000000600052603260045260246000fd5b7f4d617820737570706c7920726561636865640000000000000000000000000000600082015250565b6000612647601283612042565b915061265282612611565b602082019050919050565b600060208201905081810360008301526126768161263a565b9050919050565b7f4e487b7100000000000000000000000000000000000000000000000000000000600052601160045260246000fd5b60006126b7826120e9565b91507fffffffffffffffffffffffffffffffffffffffffffffffffffffffffffffffff82036126e9576126e861267d565b5b600182019050919050565b60008190508160005260206000209050919050565b60006020601f8301049050919050565b600082821b905092915050565b6000600883026127567fffffffffffffffffffffffffffffffffffffffffffffffffffffffffffffffff82612719565b6127608683612719565b95508019841693508086168417925050509392505050565b6000819050919050565b600061279d612798612793846120e9565b612778565b6120e9565b9050919050565b6000819050919050565b6127b783612782565b6127cb6127c3826127a4565b848454612726565b825550505050565b600090565b6127e06127d3565b6127eb8184846127ae565b505050565b5b8181101561280f576128046000826127d8565b6001810190506127f1565b5050565b601f82111561285457612825816126f4565b61282e84612709565b8101602085101561283d578190505b61285161284985612709565b8301826127f0565b50505b505050565b600082821c905092915050565b600061287760001984600802612859565b1980831691505092915050565b60006128908383612866565b9150826002028217905092915050565b6128a982612037565b67ffffffffffffffff8111156128c2576128c1612334565b5b6128cc8254612551565b6128d7828285612813565b600060209050601f83116001811461290a57600084156128f8578287015190505b6129028582612884565b86555061296a565b601f198416612918866126f4565b60005b828110156129405784890151825560018201915060208501945060208101905061291b565b8683101561295d5784890151612959601f891682612866565b8355505b6001600288020188555050505b505050505050565b600081519050919050565b600082825260208201905092915050565b600061299982612972565b6129a3818561297d565b93506129b3818560208601612053565b6129bc8161207d565b840191505092915050565b60006080820190506129dc600083018761217e565b6129e9602083018661217e565b6129f66040830185612214565b8181036060830152612a08818461298e565b905095945050505050565b600081519050612a2281611fa8565b92915050565b600060208284031215612a3e57612a3d611f72565b5b6000612a4c84828501612a13565b91505092915050565b600081905092915050565b6000612a6b82612037565b612a758185612a55565b9350612a85818560208601612053565b80840191505092915050565b6000612a9d8285612a60565b9150612aa98284612a60565b91508190509392505050565b6000612ac0826120e9565b9150612acb836120e9565b9250828203905081811115612ae357612ae261267d565b5b92915050565b7f4e487b7100000000000000000000000000000000000000000000000000000000600052603160045260246000fd5b7f4e487b7100000000000000000000000000000000000000000000000000000000600052601260045260246000fdfea26469706673582212202ca909df3cf9320adb8591466cc3fe7e82175012c56d32c78a622a3c59d36b6f64736f6c63430008180033697066733a2f2f2f516d63545251386979453758516f426851417446487769664c6742525447376b5763467a5a366a47694b5a417367697066733a2f2f516d57624443645476355076696d7239617677767a584762726542597a4e456b474671506247584d39766e377972697066733a2f2f516d577075543142564a4a65737a444a4c6e613741516b6a71524b733875333471673678774e6d4e434e754e786f697066733a2f2f2f516d6269694c575a676256784a6e67575565647074696676786e5647634d35474d4751784c6e3652525572764857",
  "linkReferences": {},
  "deployedLinkReferences": {}
}